{
  "contractName": "cryptoRide",
  "abi": [
    {
      "constant": true,
      "inputs": [],
      "name": "challengeStatus",
      "outputs": [
        {
          "name": "",
          "type": "string"
        }
      ],
      "payable": false,
      "stateMutability": "view",
      "type": "function"
    },
    {
      "constant": true,
      "inputs": [
        {
          "name": "",
          "type": "address"
        }
      ],
      "name": "donorsDonations",
      "outputs": [
        {
          "name": "",
          "type": "uint256"
        }
      ],
      "payable": false,
      "stateMutability": "view",
      "type": "function"
    },
    {
      "constant": true,
      "inputs": [],
      "name": "paused",
      "outputs": [
        {
          "name": "",
          "type": "bool"
        }
      ],
      "payable": false,
      "stateMutability": "view",
      "type": "function"
    },
    {
      "constant": true,
      "inputs": [],
      "name": "ownerAddress",
      "outputs": [
        {
          "name": "",
          "type": "address"
        }
      ],
      "payable": false,
      "stateMutability": "view",
      "type": "function"
    },
    {
      "constant": true,
      "inputs": [],
      "name": "PelotoniaAddress",
      "outputs": [
        {
          "name": "",
          "type": "address"
        }
      ],
      "payable": false,
      "stateMutability": "view",
      "type": "function"
    },
    {
      "constant": true,
      "inputs": [],
      "name": "totalDonation",
      "outputs": [
        {
          "name": "",
          "type": "uint256"
        }
      ],
      "payable": false,
      "stateMutability": "view",
      "type": "function"
    },
    {
      "inputs": [
        {
          "name": "_PelotoniaAddress",
          "type": "address"
        }
      ],
      "payable": false,
      "stateMutability": "nonpayable",
      "type": "constructor"
    },
    {
      "payable": true,
      "stateMutability": "payable",
      "type": "fallback"
    },
    {
      "anonymous": false,
      "inputs": [
        {
          "indexed": false,
          "name": "deployerAddress",
          "type": "address"
        }
      ],
      "name": "LogChallengeStarted",
      "type": "event"
    },
    {
      "anonymous": false,
      "inputs": [
        {
          "indexed": false,
          "name": "donorAddress",
          "type": "address"
        },
        {
          "indexed": false,
          "name": "donationAmount",
          "type": "uint256"
        },
        {
          "indexed": false,
          "name": "totalDonation",
          "type": "uint256"
        }
      ],
      "name": "LogNewDonation",
      "type": "event"
    },
    {
      "anonymous": false,
      "inputs": [
        {
          "indexed": false,
          "name": "latestStatus",
          "type": "string"
        }
      ],
      "name": "LogChallengeStatusRefreshed",
      "type": "event"
    },
    {
      "anonymous": false,
      "inputs": [],
      "name": "LogChallengeOngoing",
      "type": "event"
    },
    {
      "anonymous": false,
      "inputs": [],
      "name": "LogChallengeAccomplished",
      "type": "event"
    },
    {
      "anonymous": false,
      "inputs": [],
      "name": "LogChallengeOver",
      "type": "event"
    },
    {
      "anonymous": false,
      "inputs": [],
      "name": "LogChallengeFailed",
      "type": "event"
    },
    {
      "anonymous": false,
      "inputs": [
        {
          "indexed": false,
          "name": "totalDonation",
          "type": "uint256"
        }
      ],
      "name": "LogDonationAvailableForPelotoniaWithdrawal",
      "type": "event"
    },
    {
      "anonymous": false,
      "inputs": [
        {
          "indexed": false,
          "name": "PelotoniaAddress",
          "type": "address"
        },
        {
          "indexed": false,
          "name": "totalDonation",
          "type": "uint256"
        }
      ],
      "name": "LogDonationWithdrawnByPelotonia",
      "type": "event"
    },
    {
      "anonymous": false,
      "inputs": [
        {
          "indexed": false,
          "name": "totalDonation",
          "type": "uint256"
        }
      ],
      "name": "LogDonationsAvailableForDonorsWithdrawal",
      "type": "event"
    },
    {
      "anonymous": false,
      "inputs": [
        {
          "indexed": false,
          "name": "donorAddress",
          "type": "address"
        },
        {
          "indexed": false,
          "name": "withdrawnAmount",
          "type": "uint256"
        }
      ],
      "name": "LogDonationWithdrawnByDonor",
      "type": "event"
    },
    {
      "anonymous": false,
      "inputs": [
        {
          "indexed": false,
          "name": "donorAddress",
          "type": "address"
        },
        {
          "indexed": false,
          "name": "withdrawnAmount",
          "type": "uint256"
        }
      ],
      "name": "LogLastDonationWithdrawnByDonor",
      "type": "event"
    },
    {
      "anonymous": false,
      "inputs": [],
      "name": "LogPause",
      "type": "event"
    },
    {
      "anonymous": false,
      "inputs": [],
      "name": "LogUnpause",
      "type": "event"
    },
    {
      "anonymous": false,
      "inputs": [
        {
          "indexed": false,
          "name": "description",
          "type": "string"
        }
      ],
      "name": "LogNewOraclizeQuery",
      "type": "event"
    },
    {
      "anonymous": false,
      "inputs": [
        {
          "indexed": false,
          "name": "_queryId",
          "type": "bytes32"
        }
      ],
      "name": "LogNewOraclizeCallback",
      "type": "event"
    },
    {
      "constant": false,
      "inputs": [],
      "name": "refreshChallengeStatus",
      "outputs": [],
      "payable": false,
      "stateMutability": "nonpayable",
      "type": "function"
    },
    {
      "constant": false,
      "inputs": [
        {
          "name": "_queryId",
          "type": "bytes32"
        },
        {
          "name": "_result",
          "type": "string"
        }
      ],
      "name": "__callback",
      "outputs": [],
      "payable": false,
      "stateMutability": "nonpayable",
      "type": "function"
    },
    {
      "constant": false,
      "inputs": [
        {
          "name": "myid",
          "type": "bytes32"
        },
        {
          "name": "result",
          "type": "string"
        },
        {
          "name": "proof",
          "type": "bytes"
        }
      ],
      "name": "__callback",
      "outputs": [],
      "payable": false,
      "stateMutability": "nonpayable",
      "type": "function"
    },
    {
      "constant": false,
      "inputs": [],
      "name": "withDrawAllDonations",
      "outputs": [],
      "payable": false,
      "stateMutability": "nonpayable",
      "type": "function"
    },
    {
      "constant": false,
      "inputs": [],
      "name": "withdrawDonorDonation",
      "outputs": [],
      "payable": false,
      "stateMutability": "nonpayable",
      "type": "function"
    },
    {
      "constant": true,
      "inputs": [
        {
          "name": "_donorAddress",
          "type": "address"
        }
      ],
      "name": "donorDonations",
      "outputs": [
        {
          "name": "",
          "type": "uint256"
        }
      ],
      "payable": false,
      "stateMutability": "view",
      "type": "function"
    },
    {
      "constant": false,
      "inputs": [],
      "name": "pause",
      "outputs": [],
      "payable": false,
      "stateMutability": "nonpayable",
      "type": "function"
    },
    {
      "constant": false,
      "inputs": [],
      "name": "unpause",
      "outputs": [],
      "payable": false,
      "stateMutability": "nonpayable",
      "type": "function"
    }
  ],
  "bytecode": "0x608060405233600560006101000a81548173ffffffffffffffffffffffffffffffffffffffff021916908373ffffffffffffffffffffffffffffffffffffffff160217905550600560009054906101000a900473ffffffffffffffffffffffffffffffffffffffff16600660006101000a81548173ffffffffffffffffffffffffffffffffffffffff021916908373ffffffffffffffffffffffffffffffffffffffff1602179055506040805190810160405280600781526020017f6f6e676f696e670000000000000000000000000000000000000000000000000081525060079080519060200190620000f592919062000246565b5060006008556000600a60006101000a81548160ff0219169083151502179055503480156200012357600080fd5b506040516020806200334a83398101806040528101908080519060200190929190505050736f485c8bf6fc43ea212e93bbf8ce046c7f1cb4756000806101000a81548173ffffffffffffffffffffffffffffffffffffffff021916908373ffffffffffffffffffffffffffffffffffffffff16021790555080600660006101000a81548173ffffffffffffffffffffffffffffffffffffffff021916908373ffffffffffffffffffffffffffffffffffffffff1602179055507f1dad311dd1c4489a546b7d7278b272614a67455864e61d71ac03c23b3a79f87c33604051808273ffffffffffffffffffffffffffffffffffffffff1673ffffffffffffffffffffffffffffffffffffffff16815260200191505060405180910390a150620002f5565b828054600181600116156101000203166002900490600052602060002090601f016020900481019282601f106200028957805160ff1916838001178555620002ba565b82800160010185558215620002ba579182015b82811115620002b95782518255916020019190600101906200029c565b5b509050620002c99190620002cd565b5090565b620002f291905b80821115620002ee576000816000905550600101620002d4565b5090565b90565b61304580620003056000396000f3006080604052600436106100d0576000357c0100000000000000000000000000000000000000000000000000000000900463ffffffff16806303cd88801461035b57806310a62a61146103eb57806327dc297e146104425780632a9686d3146104b957806338bbfa50146105105780633f4ba83a146105cd5780635c975abb146105e45780636fc0e346146106135780638456cb591461062a5780638f84aa09146106415780639f905b3814610698578063c93ee651146106af578063e7cab98514610706578063ee2ac05f1461071d575b60405160200180807f6f6e676f696e670000000000000000000000000000000000000000000000000081525060070190506040516020818303038152906040526040518082805190602001908083835b6020831015156101455780518252602082019150602081019050602083039250610120565b6001836020036101000a038019825116818451168082178552505050505050905001915050604051809103902060001916600760405160200180828054600181600116156101000203166002900480156101d65780601f106101b45761010080835404028352918201916101d6565b820191906000526020600020905b8154815290600101906020018083116101c2575b50509150506040516020818303038152906040526040518082805190602001908083835b60208310151561021f57805182526020820191506020810190506020830392506101fa565b6001836020036101000a03801982511681845116808217855250505050505090500191505060405180910390206000191614151561025c57600080fd5b600a60009054906101000a900460ff1615151561027857600080fd5b60003411151561028757600080fd5b34600960003373ffffffffffffffffffffffffffffffffffffffff1673ffffffffffffffffffffffffffffffffffffffff16815260200190815260200160002060008282540192505081905550346008600082825401925050819055507f56296dbde10331816a5c033ca4a80f05da0583e1649a589f505ad160413c8bdd3334600854604051808473ffffffffffffffffffffffffffffffffffffffff1673ffffffffffffffffffffffffffffffffffffffff168152602001838152602001828152602001935050505060405180910390a1005b34801561036757600080fd5b50610370610748565b6040518080602001828103825283818151815260200191508051906020019080838360005b838110156103b0578082015181840152602081019050610395565b50505050905090810190601f1680156103dd5780820380516001836020036101000a031916815260200191505b509250505060405180910390f35b3480156103f757600080fd5b5061042c600480360381019080803573ffffffffffffffffffffffffffffffffffffffff1690602001909291905050506107e6565b6040518082815260200191505060405180910390f35b34801561044e57600080fd5b506104b76004803603810190808035600019169060200190929190803590602001908201803590602001908080601f01602080910402602001604051908101604052809392919081815260200183838082843782019150505050505091929192905050506107fe565b005b3480156104c557600080fd5b506104fa600480360381019080803573ffffffffffffffffffffffffffffffffffffffff169060200190929190505050610f58565b6040518082815260200191505060405180910390f35b34801561051c57600080fd5b506105cb6004803603810190808035600019169060200190929190803590602001908201803590602001908080601f0160208091040260200160405190810160405280939291908181526020018383808284378201915050505050509192919290803590602001908201803590602001908080601f0160208091040260200160405190810160405280939291908181526020018383808284378201915050505050509192919290505050610fa1565b005b3480156105d957600080fd5b506105e2610fa6565b005b3480156105f057600080fd5b506105f96110a3565b604051808215151515815260200191505060405180910390f35b34801561061f57600080fd5b506106286110b6565b005b34801561063657600080fd5b5061063f611426565b005b34801561064d57600080fd5b5061065661153f565b604051808273ffffffffffffffffffffffffffffffffffffffff1673ffffffffffffffffffffffffffffffffffffffff16815260200191505060405180910390f35b3480156106a457600080fd5b506106ad611565565b005b3480156106bb57600080fd5b506106c4611a0d565b604051808273ffffffffffffffffffffffffffffffffffffffff1673ffffffffffffffffffffffffffffffffffffffff16815260200191505060405180910390f35b34801561071257600080fd5b5061071b611a33565b005b34801561072957600080fd5b50610732611dd9565b6040518082815260200191505060405180910390f35b60078054600181600116156101000203166002900480601f0160208091040260200160405190810160405280929190818152602001828054600181600116156101000203166002900480156107de5780601f106107b3576101008083540402835291602001916107de565b820191906000526020600020905b8154815290600101906020018083116107c157829003601f168201915b505050505081565b60096020528060005260406000206000915090505481565b6060610808611ddf565b73ffffffffffffffffffffffffffffffffffffffff163373ffffffffffffffffffffffffffffffffffffffff1614151561084157600080fd5b8190507f736fe7572e6625b16f8bdb3b1fa94947a22ea757e1d82e77649fb5f5090fdf188360405180826000191660001916815260200191505060405180910390a17fbf7b67f0b42da0dbadafab88f9784548e6f395f4ca4cc68162d62c9bc2a06473816040518080602001828103825283818151815260200191508051906020019080838360005b838110156108e55780820151818401526020810190506108ca565b50505050905090810190601f1680156109125780820380516001836020036101000a031916815260200191505b509250505060405180910390a160405160200180807f6f6e676f696e670000000000000000000000000000000000000000000000000081525060070190506040516020818303038152906040526040518082805190602001908083835b602083101515610994578051825260208201915060208101905060208303925061096f565b6001836020036101000a038019825116818451168082178552505050505050905001915050604051809103902060001916816040516020018082805190602001908083835b6020831015156109fe57805182526020820191506020810190506020830392506109d9565b6001836020036101000a0380198251168184511680821785525050505050509050019150506040516020818303038152906040526040518082805190602001908083835b602083101515610a675780518252602082019150602081019050602083039250610a42565b6001836020036101000a0380198251168184511680821785525050505050509050019150506040518091039020600019161415610b1b576040805190810160405280600781526020017f6f6e676f696e670000000000000000000000000000000000000000000000000081525060079080519060200190610ae9929190612f74565b507fd8a04dfe5bcd9003bc635d98ee4d569f91da1ceb61f48c401efd9422481b774b60405160405180910390a1610f53565b60405160200180807f6163636f6d706c69736865640000000000000000000000000000000000000000815250600c0190506040516020818303038152906040526040518082805190602001908083835b602083101515610b905780518252602082019150602081019050602083039250610b6b565b6001836020036101000a038019825116818451168082178552505050505050905001915050604051809103902060001916816040516020018082805190602001908083835b602083101515610bfa5780518252602082019150602081019050602083039250610bd5565b6001836020036101000a0380198251168184511680821785525050505050509050019150506040516020818303038152906040526040518082805190602001908083835b602083101515610c635780518252602082019150602081019050602083039250610c3e565b6001836020036101000a0380198251168184511680821785525050505050509050019150506040518091039020600019161415610d50576040805190810160405280600c81526020017f6163636f6d706c6973686564000000000000000000000000000000000000000081525060079080519060200190610ce5929190612f74565b507f35c14de8e64318c6cef6c33dd421b1f15547bb04ce72a4db31a2703c1069467960405160405180910390a17ff6ebade44483ceeb1fad4e4b9d82cc10968957b53d8a901101148cc7fa2500a76008546040518082815260200191505060405180910390a1610f52565b60405160200180807f6661696c6564000000000000000000000000000000000000000000000000000081525060060190506040516020818303038152906040526040518082805190602001908083835b602083101515610dc55780518252602082019150602081019050602083039250610da0565b6001836020036101000a038019825116818451168082178552505050505050905001915050604051809103902060001916816040516020018082805190602001908083835b602083101515610e2f5780518252602082019150602081019050602083039250610e0a565b6001836020036101000a0380198251168184511680821785525050505050509050019150506040516020818303038152906040526040518082805190602001908083835b602083101515610e985780518252602082019150602081019050602083039250610e73565b6001836020036101000a0380198251168184511680821785525050505050509050019150506040518091039020600019161415610f4c576040805190810160405280600681526020017f6661696c6564000000000000000000000000000000000000000000000000000081525060079080519060200190610f1a929190612f74565b507f32d6571104986c61690de1a01405187b79681aab505ab64064c374ac0bdb764d60405160405180910390a1610f51565b600080fd5b5b5b505050565b6000600960008373ffffffffffffffffffffffffffffffffffffffff1673ffffffffffffffffffffffffffffffffffffffff168152602001908152602001600020549050919050565b505050565b600560009054906101000a900473ffffffffffffffffffffffffffffffffffffffff1673ffffffffffffffffffffffffffffffffffffffff163373ffffffffffffffffffffffffffffffffffffffff16148061104f5750600660009054906101000a900473ffffffffffffffffffffffffffffffffffffffff1673ffffffffffffffffffffffffffffffffffffffff163373ffffffffffffffffffffffffffffffffffffffff16145b151561105a57600080fd5b6000600a60006101000a81548160ff0219169083151502179055507f730c1faaa977b67dacf1e2451ef54556e04a07d577785ff79f6d31f73502efc960405160405180910390a1565b600a60009054906101000a900460ff1681565b600560009054906101000a900473ffffffffffffffffffffffffffffffffffffffff1673ffffffffffffffffffffffffffffffffffffffff163373ffffffffffffffffffffffffffffffffffffffff16148061115f5750600660009054906101000a900473ffffffffffffffffffffffffffffffffffffffff1673ffffffffffffffffffffffffffffffffffffffff163373ffffffffffffffffffffffffffffffffffffffff16145b151561116a57600080fd5b60405160200180807f6163636f6d706c69736865640000000000000000000000000000000000000000815250600c0190506040516020818303038152906040526040518082805190602001908083835b6020831015156111df57805182526020820191506020810190506020830392506111ba565b6001836020036101000a038019825116818451168082178552505050505050905001915050604051809103902060001916600760405160200180828054600181600116156101000203166002900480156112705780601f1061124e576101008083540402835291820191611270565b820191906000526020600020905b81548152906001019060200180831161125c575b50509150506040516020818303038152906040526040518082805190602001908083835b6020831015156112b95780518252602082019150602081019050602083039250611294565b6001836020036101000a0380198251168184511680821785525050505050509050019150506040518091039020600019161415156112f657600080fd5b7fd36f53a66d27de1950fb614172e8099896af815f57f566cd0e5b58c6162b9a6f333073ffffffffffffffffffffffffffffffffffffffff1631604051808373ffffffffffffffffffffffffffffffffffffffff1673ffffffffffffffffffffffffffffffffffffffff1681526020018281526020019250505060405180910390a17f52f6c360d5939b4ff0f130d6da7f5ebf38411a3047ac2fe6fcb1318edbb78edc60405160405180910390a1600660009054906101000a900473ffffffffffffffffffffffffffffffffffffffff1673ffffffffffffffffffffffffffffffffffffffff166108fc3073ffffffffffffffffffffffffffffffffffffffff16319081150290604051600060405180830381858888f19350505050158015611423573d6000803e3d6000fd5b50565b600560009054906101000a900473ffffffffffffffffffffffffffffffffffffffff1673ffffffffffffffffffffffffffffffffffffffff163373ffffffffffffffffffffffffffffffffffffffff1614806114cf5750600660009054906101000a900473ffffffffffffffffffffffffffffffffffffffff1673ffffffffffffffffffffffffffffffffffffffff163373ffffffffffffffffffffffffffffffffffffffff16145b15156114da57600080fd5b600a60009054906101000a900460ff161515156114f657600080fd5b6001600a60006101000a81548160ff0219169083151502179055507f4b314b34e912fda7f95e7d23e9c8c95f82f0aff1984e4ce592a0b005f905562460405160405180910390a1565b600560009054906101000a900473ffffffffffffffffffffffffffffffffffffffff1681565b600560009054906101000a900473ffffffffffffffffffffffffffffffffffffffff1673ffffffffffffffffffffffffffffffffffffffff163373ffffffffffffffffffffffffffffffffffffffff16148061160e5750600660009054906101000a900473ffffffffffffffffffffffffffffffffffffffff1673ffffffffffffffffffffffffffffffffffffffff163373ffffffffffffffffffffffffffffffffffffffff16145b151561161957600080fd5b60405160200180807f6f6e676f696e670000000000000000000000000000000000000000000000000081525060070190506040516020818303038152906040526040518082805190602001908083835b60208310151561168e5780518252602082019150602081019050602083039250611669565b6001836020036101000a0380198251168184511680821785525050505050509050019150506040518091039020600019166007604051602001808280546001816001161561010002031660029004801561171f5780601f106116fd57610100808354040283529182019161171f565b820191906000526020600020905b81548152906001019060200180831161170b575b50509150506040516020818303038152906040526040518082805190602001908083835b6020831015156117685780518252602082019150602081019050602083039250611743565b6001836020036101000a0380198251168184511680821785525050505050509050019150506040518091039020600019161415156117a557600080fd5b3073ffffffffffffffffffffffffffffffffffffffff16316117fb6040805190810160405280600381526020017f55524c000000000000000000000000000000000000000000000000000000000081525061213d565b1115611894577f621c2856e3b87f81235f8ac8a22bbb40a0142961960710d00b2b6c380902b57e6040518080602001828103825260288152602001807f4f7261636c697a65207175657279204e4f542073656e742c2062616c616e636581526020017f20746f6f206c6f7700000000000000000000000000000000000000000000000081525060400191505060405180910390a1611a0b565b7f621c2856e3b87f81235f8ac8a22bbb40a0142961960710d00b2b6c380902b57e6040518080602001828103825260238152602001807f4f7261636c697a652071756572792073656e742c207374616e64696e6720627981526020017f2e2e2e000000000000000000000000000000000000000000000000000000000081525060400191505060405180910390a1611a096040805190810160405280600381526020017f55524c000000000000000000000000000000000000000000000000000000000081525060a060405190810160405280606481526020017f6a736f6e2868747470733a2f2f706779326178373666392e657865637574652d81526020017f6170692e65752d63656e7472616c2d312e616d617a6f6e6177732e636f6d2f7481526020017f6573742f63727970746f5269646554657374292e6368616c6c656e67655f737481526020017f617475730000000000000000000000000000000000000000000000000000000081525061250d565b505b565b600660009054906101000a900473ffffffffffffffffffffffffffffffffffffffff1681565b60008060405160200180807f6661696c6564000000000000000000000000000000000000000000000000000081525060060190506040516020818303038152906040526040518082805190602001908083835b602083101515611aab5780518252602082019150602081019050602083039250611a86565b6001836020036101000a03801982511681845116808217855250505050505090500191505060405180910390206000191660076040516020018082805460018160011615610100020316600290048015611b3c5780601f10611b1a576101008083540402835291820191611b3c565b820191906000526020600020905b815481529060010190602001808311611b28575b50509150506040516020818303038152906040526040518082805190602001908083835b602083101515611b855780518252602082019150602081019050602083039250611b60565b6001836020036101000a038019825116818451168082178552505050505050905001915050604051809103902060001916141515611bc257600080fd5b600960003373ffffffffffffffffffffffffffffffffffffffff1673ffffffffffffffffffffffffffffffffffffffff1681526020019081526020016000205491506000600960003373ffffffffffffffffffffffffffffffffffffffff1673ffffffffffffffffffffffffffffffffffffffff168152602001908152602001600020819055503073ffffffffffffffffffffffffffffffffffffffff1631905081811115611d22577fd0e7b6f70665444245c7c5103d5b129da2af0f64b23dd03d676d4cc6fe25b7e93383604051808373ffffffffffffffffffffffffffffffffffffffff1673ffffffffffffffffffffffffffffffffffffffff1681526020018281526020019250505060405180910390a13373ffffffffffffffffffffffffffffffffffffffff166108fc839081150290604051600060405180830381858888f19350505050158015611d1c573d6000803e3d6000fd5b50611dd5565b7fd9689a2aa4c32e524d77f01c15d6738cc80cb071c779e41b4f1322dd266e81a73382604051808373ffffffffffffffffffffffffffffffffffffffff1673ffffffffffffffffffffffffffffffffffffffff1681526020018281526020019250505060405180910390a13373ffffffffffffffffffffffffffffffffffffffff166108fc829081150290604051600060405180830381858888f19350505050158015611dd3573d6000803e3d6000fd5b505b5050565b60085481565b6000806000809054906101000a900473ffffffffffffffffffffffffffffffffffffffff1673ffffffffffffffffffffffffffffffffffffffff161480611e4f57506000611e4d6000809054906101000a900473ffffffffffffffffffffffffffffffffffffffff16612aaf565b145b15611e6057611e5e6000612aba565b505b6000809054906101000a900473ffffffffffffffffffffffffffffffffffffffff1673ffffffffffffffffffffffffffffffffffffffff166338cc48316040518163ffffffff167c0100000000000000000000000000000000000000000000000000000000028152600401602060405180830381600087803b158015611ee557600080fd5b505af1158015611ef9573d6000803e3d6000fd5b505050506040513d6020811015611f0f57600080fd5b810190808051906020019092919050505073ffffffffffffffffffffffffffffffffffffffff16600160009054906101000a900473ffffffffffffffffffffffffffffffffffffffff1673ffffffffffffffffffffffffffffffffffffffff16141515612077576000809054906101000a900473ffffffffffffffffffffffffffffffffffffffff1673ffffffffffffffffffffffffffffffffffffffff166338cc48316040518163ffffffff167c0100000000000000000000000000000000000000000000000000000000028152600401602060405180830381600087803b158015611ffb57600080fd5b505af115801561200f573d6000803e3d6000fd5b505050506040513d602081101561202557600080fd5b8101908080519060200190929190505050600160006101000a81548173ffffffffffffffffffffffffffffffffffffffff021916908373ffffffffffffffffffffffffffffffffffffffff1602179055505b600160009054906101000a900473ffffffffffffffffffffffffffffffffffffffff1673ffffffffffffffffffffffffffffffffffffffff1663c281d19e6040518163ffffffff167c0100000000000000000000000000000000000000000000000000000000028152600401602060405180830381600087803b1580156120fd57600080fd5b505af1158015612111573d6000803e3d6000fd5b505050506040513d602081101561212757600080fd5b8101908080519060200190929190505050905090565b6000806000809054906101000a900473ffffffffffffffffffffffffffffffffffffffff1673ffffffffffffffffffffffffffffffffffffffff1614806121ad575060006121ab6000809054906101000a900473ffffffffffffffffffffffffffffffffffffffff16612aaf565b145b156121be576121bc6000612aba565b505b6000809054906101000a900473ffffffffffffffffffffffffffffffffffffffff1673ffffffffffffffffffffffffffffffffffffffff166338cc48316040518163ffffffff167c0100000000000000000000000000000000000000000000000000000000028152600401602060405180830381600087803b15801561224357600080fd5b505af1158015612257573d6000803e3d6000fd5b505050506040513d602081101561226d57600080fd5b810190808051906020019092919050505073ffffffffffffffffffffffffffffffffffffffff16600160009054906101000a900473ffffffffffffffffffffffffffffffffffffffff1673ffffffffffffffffffffffffffffffffffffffff161415156123d5576000809054906101000a900473ffffffffffffffffffffffffffffffffffffffff1673ffffffffffffffffffffffffffffffffffffffff166338cc48316040518163ffffffff167c0100000000000000000000000000000000000000000000000000000000028152600401602060405180830381600087803b15801561235957600080fd5b505af115801561236d573d6000803e3d6000fd5b505050506040513d602081101561238357600080fd5b8101908080519060200190929190505050600160006101000a81548173ffffffffffffffffffffffffffffffffffffffff021916908373ffffffffffffffffffffffffffffffffffffffff1602179055505b600160009054906101000a900473ffffffffffffffffffffffffffffffffffffffff1673ffffffffffffffffffffffffffffffffffffffff1663524f3889836040518263ffffffff167c01000000000000000000000000000000000000000000000000000000000281526004018080602001828103825283818151815260200191508051906020019080838360005b8381101561247f578082015181840152602081019050612464565b50505050905090810190601f1680156124ac5780820380516001836020036101000a031916815260200191505b5092505050602060405180830381600087803b1580156124cb57600080fd5b505af11580156124df573d6000803e3d6000fd5b505050506040513d60208110156124f557600080fd5b81019080805190602001909291905050509050919050565b60008060008060009054906101000a900473ffffffffffffffffffffffffffffffffffffffff1673ffffffffffffffffffffffffffffffffffffffff16148061257f5750600061257d6000809054906101000a900473ffffffffffffffffffffffffffffffffffffffff16612aaf565b145b156125905761258e6000612aba565b505b6000809054906101000a900473ffffffffffffffffffffffffffffffffffffffff1673ffffffffffffffffffffffffffffffffffffffff166338cc48316040518163ffffffff167c0100000000000000000000000000000000000000000000000000000000028152600401602060405180830381600087803b15801561261557600080fd5b505af1158015612629573d6000803e3d6000fd5b505050506040513d602081101561263f57600080fd5b810190808051906020019092919050505073ffffffffffffffffffffffffffffffffffffffff16600160009054906101000a900473ffffffffffffffffffffffffffffffffffffffff1673ffffffffffffffffffffffffffffffffffffffff161415156127a7576000809054906101000a900473ffffffffffffffffffffffffffffffffffffffff1673ffffffffffffffffffffffffffffffffffffffff166338cc48316040518163ffffffff167c0100000000000000000000000000000000000000000000000000000000028152600401602060405180830381600087803b15801561272b57600080fd5b505af115801561273f573d6000803e3d6000fd5b505050506040513d602081101561275557600080fd5b8101908080519060200190929190505050600160006101000a81548173ffffffffffffffffffffffffffffffffffffffff021916908373ffffffffffffffffffffffffffffffffffffffff1602179055505b600160009054906101000a900473ffffffffffffffffffffffffffffffffffffffff1673ffffffffffffffffffffffffffffffffffffffff1663524f3889856040518263ffffffff167c01000000000000000000000000000000000000000000000000000000000281526004018080602001828103825283818151815260200191508051906020019080838360005b83811015612851578082015181840152602081019050612836565b50505050905090810190601f16801561287e5780820380516001836020036101000a031916815260200191505b5092505050602060405180830381600087803b15801561289d57600080fd5b505af11580156128b1573d6000803e3d6000fd5b505050506040513d60208110156128c757600080fd5b8101908080519060200190929190505050905062030d403a02670de0b6b3a7640000018111156128fd5760006001029150612aa8565b600160009054906101000a900473ffffffffffffffffffffffffffffffffffffffff1673ffffffffffffffffffffffffffffffffffffffff1663adf59f9982600087876040518563ffffffff167c0100000000000000000000000000000000000000000000000000000000028152600401808481526020018060200180602001838103835285818151815260200191508051906020019080838360005b838110156129b557808201518184015260208101905061299a565b50505050905090810190601f1680156129e25780820380516001836020036101000a031916815260200191505b50838103825284818151815260200191508051906020019080838360005b83811015612a1b578082015181840152602081019050612a00565b50505050905090810190601f168015612a485780820380516001836020036101000a031916815260200191505b50955050505050506020604051808303818588803b158015612a6957600080fd5b505af1158015612a7d573d6000803e3d6000fd5b50505050506040513d6020811015612a9457600080fd5b810190808051906020019092919050505091505b5092915050565b6000813b9050919050565b6000612ac4612acb565b9050919050565b600080612aeb731d3b2638a7cc9f2cb3d298a3da7a90b67e5506ed612aaf565b1115612b8c57731d3b2638a7cc9f2cb3d298a3da7a90b67e5506ed6000806101000a81548173ffffffffffffffffffffffffffffffffffffffff021916908373ffffffffffffffffffffffffffffffffffffffff160217905550612b836040805190810160405280600b81526020017f6574685f6d61696e6e6574000000000000000000000000000000000000000000815250612f5a565b60019050612f57565b6000612bab73c03a2615d5efaf5f49f60b7bb6583eaec212fdf1612aaf565b1115612c4c5773c03a2615d5efaf5f49f60b7bb6583eaec212fdf16000806101000a81548173ffffffffffffffffffffffffffffffffffffffff021916908373ffffffffffffffffffffffffffffffffffffffff160217905550612c436040805190810160405280600c81526020017f6574685f726f707374656e330000000000000000000000000000000000000000815250612f5a565b60019050612f57565b6000612c6b73b7a07bcf2ba2f2703b24c0691b5278999c59ac7e612aaf565b1115612d0c5773b7a07bcf2ba2f2703b24c0691b5278999c59ac7e6000806101000a81548173ffffffffffffffffffffffffffffffffffffffff021916908373ffffffffffffffffffffffffffffffffffffffff160217905550612d036040805190810160405280600981526020017f6574685f6b6f76616e0000000000000000000000000000000000000000000000815250612f5a565b60019050612f57565b6000612d2b73146500cfd35b22e4a392fe0adc06de1a1368ed48612aaf565b1115612dcc5773146500cfd35b22e4a392fe0adc06de1a1368ed486000806101000a81548173ffffffffffffffffffffffffffffffffffffffff021916908373ffffffffffffffffffffffffffffffffffffffff160217905550612dc36040805190810160405280600b81526020017f6574685f72696e6b656279000000000000000000000000000000000000000000815250612f5a565b60019050612f57565b6000612deb736f485c8bf6fc43ea212e93bbf8ce046c7f1cb475612aaf565b1115612e4e57736f485c8bf6fc43ea212e93bbf8ce046c7f1cb4756000806101000a81548173ffffffffffffffffffffffffffffffffffffffff021916908373ffffffffffffffffffffffffffffffffffffffff16021790555060019050612f57565b6000612e6d7320e12a1f859b3feae5fb2a0a32c18f5a65555bbf612aaf565b1115612ed0577320e12a1f859b3feae5fb2a0a32c18f5a65555bbf6000806101000a81548173ffffffffffffffffffffffffffffffffffffffff021916908373ffffffffffffffffffffffffffffffffffffffff16021790555060019050612f57565b6000612eef7351efaf4c8b3c9afbd5ab9f4bbc82784ab6ef8faa612aaf565b1115612f52577351efaf4c8b3c9afbd5ab9f4bbc82784ab6ef8faa6000806101000a81548173ffffffffffffffffffffffffffffffffffffffff021916908373ffffffffffffffffffffffffffffffffffffffff16021790555060019050612f57565b600090505b90565b8060029080519060200190612f70929190612f74565b5050565b828054600181600116156101000203166002900490600052602060002090601f016020900481019282601f10612fb557805160ff1916838001178555612fe3565b82800160010185558215612fe3579182015b82811115612fe2578251825591602001919060010190612fc7565b5b509050612ff09190612ff4565b5090565b61301691905b80821115613012576000816000905550600101612ffa565b5090565b905600a165627a7a72305820c8151bfac89882e5cf1e321a0bb4cf76436e1cffb38bd1a3807b5028643981360029",
  "source": "pragma solidity 0.4.24;\r\n\r\n// Import the Oraclize contract code so we can inherit from it\r\n// Note that in our local test environment, we need to import the .sol file\r\n// from the environment directly, whereas on the public nets we need to\r\n// use the github version instead.\r\n/* import \"github.com/oraclize/ethereum-api/oraclizeAPI.sol\"; */\r\nimport \"./usingOraclize.sol\";\r\n\r\ncontract cryptoRide is usingOraclize {\r\n  /*\r\n      VARIABLES - to describe the state of the contract\r\n   */\r\n  // The address of the contract owner (Steve), set when the contract is deployed\r\n  address public ownerAddress = msg.sender;\r\n  // The address of Pelotonia, the non-profit beneficiary that will receive the funds.\r\n  // If they don't have one, then use ownerAddress.  Setup at contract construction.\r\n  address public PelotoniaAddress = ownerAddress;\r\n  // The status of the challenge, initialized at deployment to 'ongoing'.\r\n  // Other statuses are 'accomplished' and 'failed'\r\n  string public challengeStatus = 'ongoing';\r\n  // Another interesting variable here is the actual amount of funds that are\r\n  // locked on the contract after donation. In normal contracts, this variable\r\n  // is implicitly available under the name 'balance'. However here, since we\r\n  // need to query an external Oracle (the GPS API), the contract needs to pay\r\n  // a small amount of value at each query, and thus it consumes it own balance.\r\n  // This means that at the end of the challenge, the amount donated to Pelotonia\r\n  // will be a little bit less that the sum of donations. To still be able to\r\n  // keep track of the total amount donated, we record it with a dedicated\r\n  // variable that we will increase gradually at each donation. Note that we\r\n  // could not add the values in the mapping of individual donations, because\r\n  // a mapping cannot be iterated on for additions or other operations (we\r\n  // could revert to a more complicated scheme with arrays, but we stick to\r\n  // our simple single variable).\r\n  uint public totalDonation = 0;\r\n  // Keep track of all individual donations, so that donors can withdraw their\r\n  // funds if the challenge fails\r\n  mapping (address => uint) public donorsDonations;\r\n  // Pausable behavior state\r\n  bool public paused = false;\r\n\r\n  /*\r\n      EVENTS - for broadcasting a set of logs that we can listen to\r\n  */\r\n  // The contract has been deployed, and the challenge can start\r\n  event LogChallengeStarted(address deployerAddress);\r\n  // A new donor has contributed by sending funds\r\n  event LogNewDonation(address donorAddress, uint donationAmount, uint totalDonation);\r\n  // The challenge status has been refreshed\r\n  event LogChallengeStatusRefreshed(string latestStatus);\r\n  // The challenge is still ongoing\r\n  event LogChallengeOngoing();\r\n  // The challenge has been accomplished\r\n  event LogChallengeAccomplished();\r\n  // The challenge is over (after all donations have been withdrawn)\r\n  event LogChallengeOver();\r\n  // The challenge has failed\r\n  event LogChallengeFailed();\r\n  // The funds are available for  to withdraw them (will only be broadcast\r\n  // if the challenge is successful)\r\n  event LogDonationAvailableForPelotoniaWithdrawal(uint totalDonation);\r\n  // Pelotonia has withdrawn the funds\r\n  event LogDonationWithdrawnByPelotonia(address PelotoniaAddress, uint totalDonation);\r\n  // The funds are available for the donors to withdraw (will only be broadcast\r\n  // if the challenge has failed)\r\n  event LogDonationsAvailableForDonorsWithdrawal(uint totalDonation);\r\n  // One of the donors has withdrawn their funds\r\n  event LogDonationWithdrawnByDonor(address donorAddress, uint withdrawnAmount);\r\n  // The last donor withdrew their funds\r\n  event LogLastDonationWithdrawnByDonor(address donorAddress, uint withdrawnAmount);\r\n  // Pausable behavior\r\n  event LogPause();\r\n  event LogUnpause();\r\n  // Oraclize technical event\r\n  event LogNewOraclizeQuery(string description);\r\n  event LogNewOraclizeCallback(bytes32 _queryId);\r\n\r\n  /*\r\n      FUNCTION MODIFIERS - to set specific permissions for contract functions\r\n  */\r\n  // For functions that can only be executed either the owner or by Pelotonia\r\n  modifier onlyOrganizers {\r\n      require((msg.sender == ownerAddress) || (msg.sender == PelotoniaAddress));\r\n      _;\r\n  }\r\n  // For functions that can only be executed by the Oracle (the address method\r\n  // in the assertion is inherited from the usingOraclize parent contract)\r\n  modifier onlyOracle {\r\n      require(msg.sender == oraclize_cbAddress());\r\n      _;\r\n  }\r\n  // For functions that can only be executed when the challenge is ongoing\r\n  // Note that pure string comparison is not yet supported in Solidity and\r\n  // one has to hash them first then compare their hashes\r\n  modifier whenOngoing {\r\n      require(keccak256(abi.encodePacked(challengeStatus)) == keccak256(abi.encodePacked('ongoing')));\r\n      _;\r\n  }\r\n  // For functions that can only be executed when the challenge is accomplished\r\n  modifier whenAccomplished {\r\n      require (keccak256(abi.encodePacked(challengeStatus)) ==  keccak256(abi.encodePacked('accomplished')));\r\n      _;\r\n  }\r\n  // For functions that can only be executed when the challenge is failed\r\n  modifier whenFailed {\r\n      require (keccak256(abi.encodePacked(challengeStatus)) ==  keccak256(abi.encodePacked('failed')));\r\n      _;\r\n  }\r\n  // Pausable behavior - we implement only the not paused modifier\r\n  modifier whenNotPaused() {\r\n    require(!paused);\r\n    _;\r\n  }\r\n\r\n  /*\r\n      FUNCTIONS - to implement the behavior of the contract\r\n  */\r\n  // The constructor functions, called when the contract is deployed\r\n  constructor(address _PelotoniaAddress) public {\r\n    // The OAR variable assignment is for testing purposes only\r\n    OAR = OraclizeAddrResolverI(0x6f485C8BF6fc43eA212E93BBF8ce046C7f1cb475);\r\n    PelotoniaAddress = _PelotoniaAddress;\r\n    emit LogChallengeStarted(msg.sender);\r\n  }\r\n\r\n  // The fallback function called anytime someone sends value to the contract\r\n  // This is the 'donate()' function. But we cannot call it donate() because\r\n  // we need a nameless function to be able to send Ether directly from any\r\n  // wallet without having to know about the contract interface.\r\n  function () public payable whenOngoing whenNotPaused {\r\n    require(msg.value > 0);\r\n    // Increase the individual donor balance\r\n    donorsDonations[msg.sender] += msg.value;\r\n    // Increase the total funds donated\r\n    totalDonation += msg.value;\r\n    // Log the donation, along with the new total value of funds donated\r\n    emit LogNewDonation(msg.sender, msg.value, totalDonation);\r\n  }\r\n\r\n  // The querying function that will trigger the Oracle to check whether the\r\n  // challenge has been accomplished\r\n  function refreshChallengeStatus() public onlyOrganizers whenOngoing {\r\n    // Call to the Oraclize API\r\n    if (oraclize_getPrice(\"URL\") > address(this).balance) {\r\n        emit LogNewOraclizeQuery(\"Oraclize query NOT sent, balance too low\");\r\n    } else {\r\n        emit LogNewOraclizeQuery(\"Oraclize query sent, standing by...\");\r\n        // Production endpoint\r\n        // oraclize_query(\"URL\", \"json(https://pgy2ax76f9.execute-api.eu-central-1.amazonaws.com/prod/cryptoRide).challenge_status\");\r\n        // Test endpoint\r\n        oraclize_query(\"URL\", \"json(https://pgy2ax76f9.execute-api.eu-central-1.amazonaws.com/test/cryptoRideTest).challenge_status\");\r\n    }\r\n  }\r\n\r\n  // The callback function that will be invoked by the Oracle after it has\r\n  // fetched the latest challenge status\r\n  function __callback(bytes32 _queryId, string _result) public onlyOracle {\r\n    // Assert whether success or not, and update contract state accordingly\r\n    string memory latestStatus = _result;\r\n\r\n    emit LogNewOraclizeCallback(_queryId);\r\n    emit LogChallengeStatusRefreshed(latestStatus);\r\n\r\n    if  (keccak256(abi.encodePacked(latestStatus)) ==  keccak256(abi.encodePacked('ongoing'))) {\r\n      challengeStatus = 'ongoing';\r\n      emit LogChallengeOngoing();\r\n    } else if  (keccak256(abi.encodePacked(latestStatus)) ==  keccak256(abi.encodePacked('accomplished'))) {\r\n      challengeStatus = 'accomplished';\r\n      emit LogChallengeAccomplished();\r\n      emit LogDonationAvailableForPelotoniaWithdrawal(totalDonation);\r\n    } else if  (keccak256(abi.encodePacked(latestStatus)) ==  keccak256(abi.encodePacked('failed'))) {\r\n      challengeStatus = 'failed';\r\n      emit LogChallengeFailed();\r\n    } else {\r\n      revert();\r\n    }\r\n  }\r\n\r\n  // The Pelotonia funds withdrawal function - note that we use a withdrawal pattern\r\n  // here (the transfer must be triggered by the funds claimer, and will not\r\n  // be triggered automatically by the contract), as it is known to be much\r\n  // safer (cf. Solidity documentation)\r\n  function withDrawAllDonations() public onlyOrganizers whenAccomplished {\r\n    // Broadcast withdrawal and closing events\r\n    emit LogDonationWithdrawnByPelotonia(msg.sender, address(this).balance);\r\n    emit LogChallengeOver();\r\n    // Transfer the remaning contract balance to Pelotonia\r\n    PelotoniaAddress.transfer(address(this).balance);\r\n  }\r\n\r\n  // The individual donors withdrawal functions (so that they can withdraw\r\n  // their value if the challenge is a failure)\r\n  function withdrawDonorDonation() public whenFailed {\r\n    // Retrieve the amount already contributed\r\n    uint donation = donorsDonations[msg.sender];\r\n    // Set this amount to zero\r\n    donorsDonations[msg.sender] = 0;\r\n    // Transfer the funds to the individual donor. Note that the very last donor\r\n    // to withdraw her funds will meet a contract balance that is lower than\r\n    // the funds she will have contributed. This is because the balance has\r\n    // been slightly depleted by the calls to the Oracle that do consume value.\r\n    // To ensure that the donor can still get this remaining balance, we use\r\n    // a little conditional flow here. Otherwise we would end up trying to\r\n    // transfer an amount greater than the balance and it would trigger an\r\n    // error, thereby actually locking the funds on the contract\r\n    uint remainingBalance = address(this).balance;\r\n    if (remainingBalance > donation) {\r\n      // Broadcast the withdrawal event\r\n      emit LogDonationWithdrawnByDonor(msg.sender, donation);\r\n      msg.sender.transfer(donation);\r\n    } else {\r\n      // Broadcast the withdrawal event\r\n      emit LogLastDonationWithdrawnByDonor(msg.sender, remainingBalance);\r\n      msg.sender.transfer(remainingBalance);\r\n    }\r\n  }\r\n\r\n  // Get the current donation for a given donor address\r\n  function donorDonations(address _donorAddress) public constant returns(uint) {\r\n    return donorsDonations[_donorAddress];\r\n  }\r\n\r\n  // Pause the donations (fallback payable function)\r\n  function pause() onlyOrganizers whenNotPaused public {\r\n    paused = true;\r\n    emit LogPause();\r\n  }\r\n\r\n  // Unpause the donations (fallback payable function)\r\n  function unpause() onlyOrganizers public {\r\n    paused = false;\r\n    emit LogUnpause();\r\n  }\r\n}\r\n",
  "sourcePath": "C:\\Users\\augus_000\\documents\\github\\cryptoride\\contracts\\CryptoRide.sol",
  "compiler": {
    "name": "solc",
    "version": "0.4.24+commit.e67f0147.Emscripten.clang"
  },
  "schemaVersion": "2.0.1",
  "updatedAt": "2018-07-22T23:31:32.719Z"
}